{
  "contractName": "DappToken",
  "abi": [
    {
      "inputs": [
        {
          "internalType": "uint256",
          "name": "_initialSupply",
          "type": "uint256"
        }
      ],
      "stateMutability": "nonpayable",
      "type": "constructor"
    },
    {
      "anonymous": false,
      "inputs": [
        {
          "indexed": true,
          "internalType": "address",
          "name": "_ownner",
          "type": "address"
        },
        {
          "indexed": true,
          "internalType": "address",
          "name": "_spender",
          "type": "address"
        },
        {
          "indexed": false,
          "internalType": "uint256",
          "name": "_value",
          "type": "uint256"
        }
      ],
      "name": "Approval",
      "type": "event"
    },
    {
      "anonymous": false,
      "inputs": [
        {
          "indexed": true,
          "internalType": "address",
          "name": "_from",
          "type": "address"
        },
        {
          "indexed": true,
          "internalType": "address",
          "name": "_to",
          "type": "address"
        },
        {
          "indexed": false,
          "internalType": "uint256",
          "name": "_value",
          "type": "uint256"
        }
      ],
      "name": "Transfer",
      "type": "event"
    },
    {
      "inputs": [
        {
          "internalType": "address",
          "name": "",
          "type": "address"
        },
        {
          "internalType": "address",
          "name": "",
          "type": "address"
        }
      ],
      "name": "allowance",
      "outputs": [
        {
          "internalType": "uint256",
          "name": "",
          "type": "uint256"
        }
      ],
      "stateMutability": "view",
      "type": "function",
      "constant": true
    },
    {
      "inputs": [
        {
          "internalType": "address",
          "name": "",
          "type": "address"
        }
      ],
      "name": "balanceOf",
      "outputs": [
        {
          "internalType": "uint256",
          "name": "",
          "type": "uint256"
        }
      ],
      "stateMutability": "view",
      "type": "function",
      "constant": true
    },
    {
      "inputs": [],
      "name": "name",
      "outputs": [
        {
          "internalType": "string",
          "name": "",
          "type": "string"
        }
      ],
      "stateMutability": "view",
      "type": "function",
      "constant": true
    },
    {
      "inputs": [],
      "name": "standard",
      "outputs": [
        {
          "internalType": "string",
          "name": "",
          "type": "string"
        }
      ],
      "stateMutability": "view",
      "type": "function",
      "constant": true
    },
    {
      "inputs": [],
      "name": "ticker",
      "outputs": [
        {
          "internalType": "string",
          "name": "",
          "type": "string"
        }
      ],
      "stateMutability": "view",
      "type": "function",
      "constant": true
    },
    {
      "inputs": [],
      "name": "totalSupply",
      "outputs": [
        {
          "internalType": "uint256",
          "name": "",
          "type": "uint256"
        }
      ],
      "stateMutability": "view",
      "type": "function",
      "constant": true
    },
    {
      "inputs": [
        {
          "internalType": "address",
          "name": "_to",
          "type": "address"
        },
        {
          "internalType": "uint256",
          "name": "_value",
          "type": "uint256"
        }
      ],
      "name": "transfer",
      "outputs": [
        {
          "internalType": "bool",
          "name": "success",
          "type": "bool"
        }
      ],
      "stateMutability": "nonpayable",
      "type": "function"
    },
    {
      "inputs": [
        {
          "internalType": "address",
          "name": "_from",
          "type": "address"
        },
        {
          "internalType": "address",
          "name": "_to",
          "type": "address"
        },
        {
          "internalType": "uint256",
          "name": "_value",
          "type": "uint256"
        }
      ],
      "name": "transferFrom",
      "outputs": [
        {
          "internalType": "bool",
          "name": "success",
          "type": "bool"
        }
      ],
      "stateMutability": "nonpayable",
      "type": "function"
    },
    {
      "inputs": [
        {
          "internalType": "address",
          "name": "_spender",
          "type": "address"
        },
        {
          "internalType": "uint256",
          "name": "_value",
          "type": "uint256"
        }
      ],
      "name": "approve",
      "outputs": [
        {
          "internalType": "bool",
          "name": "success",
          "type": "bool"
        }
      ],
      "stateMutability": "nonpayable",
      "type": "function"
    }
  ],
  "bytecode": "0x60806040526040518060400160405280600a81526020017f4461707020546f6b656e00000000000000000000000000000000000000000000815250600090805190602001906200005192919062000172565b506040518060400160405280600481526020017f4441505000000000000000000000000000000000000000000000000000000000815250600190805190602001906200009f92919062000172565b506040518060400160405280600f81526020017f4461707020546f6b656e2076312e30000000000000000000000000000000000081525060029080519060200190620000ed92919062000172565b506127106003553480156200010157600080fd5b5060405162000f3c38038062000f3c833981810160405281019062000127919062000239565b80600460003373ffffffffffffffffffffffffffffffffffffffff1673ffffffffffffffffffffffffffffffffffffffff1681526020019081526020016000208190555050620002ee565b82805462000180906200026f565b90600052602060002090601f016020900481019282620001a45760008555620001f0565b82601f10620001bf57805160ff1916838001178555620001f0565b82800160010185558215620001f0579182015b82811115620001ef578251825591602001919060010190620001d2565b5b509050620001ff919062000203565b5090565b5b808211156200021e57600081600090555060010162000204565b5090565b6000815190506200023381620002d4565b92915050565b6000602082840312156200024c57600080fd5b60006200025c8482850162000222565b91505092915050565b6000819050919050565b600060028204905060018216806200028857607f821691505b602082108114156200029f576200029e620002a5565b5b50919050565b7f4e487b7100000000000000000000000000000000000000000000000000000000600052602260045260246000fd5b620002df8162000265565b8114620002eb57600080fd5b50565b610c3e80620002fe6000396000f3fe608060405234801561001057600080fd5b50600436106100935760003560e01c80635a3b7e42116100665780635a3b7e421461013457806370a08231146101525780638ba47bdd14610182578063a9059cbb146101a0578063dd62ed3e146101d057610093565b806306fdde0314610098578063095ea7b3146100b657806318160ddd146100e657806323b872dd14610104575b600080fd5b6100a0610200565b6040516100ad91906109db565b60405180910390f35b6100d060048036038101906100cb919061092d565b61028e565b6040516100dd91906109c0565b60405180910390f35b6100ee610386565b6040516100fb91906109fd565b60405180910390f35b61011e600480360381019061011991906108de565b61038c565b60405161012b91906109c0565b60405180910390f35b61013c610588565b60405161014991906109db565b60405180910390f35b61016c60048036038101906101679190610879565b610616565b60405161017991906109fd565b60405180910390f35b61018a61062e565b60405161019791906109db565b60405180910390f35b6101ba60048036038101906101b5919061092d565b6106bc565b6040516101c791906109c0565b60405180910390f35b6101ea60048036038101906101e591906108a2565b61082a565b6040516101f791906109fd565b60405180910390f35b6000805461020d90610b39565b80601f016020809104026020016040519081016040528092919081815260200182805461023990610b39565b80156102865780601f1061025b57610100808354040283529160200191610286565b820191906000526020600020905b81548152906001019060200180831161026957829003601f168201915b505050505081565b600081600560003373ffffffffffffffffffffffffffffffffffffffff1673ffffffffffffffffffffffffffffffffffffffff16815260200190815260200160002060008573ffffffffffffffffffffffffffffffffffffffff1673ffffffffffffffffffffffffffffffffffffffff1681526020019081526020016000208190555060003390508373ffffffffffffffffffffffffffffffffffffffff168173ffffffffffffffffffffffffffffffffffffffff167f8c5be1e5ebec7d5bd14f71427d1e84f3dd0314c0f7b2291e5b200ac8c7c3b9258560405161037391906109fd565b60405180910390a3600191505092915050565b60035481565b6000600460008573ffffffffffffffffffffffffffffffffffffffff1673ffffffffffffffffffffffffffffffffffffffff168152602001908152602001600020548211156103de5760009050610581565b600560003373ffffffffffffffffffffffffffffffffffffffff1673ffffffffffffffffffffffffffffffffffffffff16815260200190815260200160002060008573ffffffffffffffffffffffffffffffffffffffff1673ffffffffffffffffffffffffffffffffffffffff1681526020019081526020016000205482111561046b5760009050610581565b81600460008673ffffffffffffffffffffffffffffffffffffffff1673ffffffffffffffffffffffffffffffffffffffff16815260200190815260200160002060008282546104ba9190610a8a565b9250508190555081600460008573ffffffffffffffffffffffffffffffffffffffff1673ffffffffffffffffffffffffffffffffffffffff16815260200190815260200160002060008282546105109190610a34565b925050819055508273ffffffffffffffffffffffffffffffffffffffff168473ffffffffffffffffffffffffffffffffffffffff167fddf252ad1be2c89b69c2b068fc378daa952ba7f163c4a11628f55a4df523b3ef8460405161057491906109fd565b60405180910390a3600190505b9392505050565b6002805461059590610b39565b80601f01602080910402602001604051908101604052809291908181526020018280546105c190610b39565b801561060e5780601f106105e35761010080835404028352916020019161060e565b820191906000526020600020905b8154815290600101906020018083116105f157829003601f168201915b505050505081565b60046020528060005260406000206000915090505481565b6001805461063b90610b39565b80601f016020809104026020016040519081016040528092919081815260200182805461066790610b39565b80156106b45780601f10610689576101008083540402835291602001916106b4565b820191906000526020600020905b81548152906001019060200180831161069757829003601f168201915b505050505081565b600081600460003373ffffffffffffffffffffffffffffffffffffffff1673ffffffffffffffffffffffffffffffffffffffff16815260200190815260200160002054101561070e5760009050610824565b81600460003373ffffffffffffffffffffffffffffffffffffffff1673ffffffffffffffffffffffffffffffffffffffff168152602001908152602001600020600082825461075d9190610a8a565b9250508190555081600460008573ffffffffffffffffffffffffffffffffffffffff1673ffffffffffffffffffffffffffffffffffffffff16815260200190815260200160002060008282546107b39190610a34565b925050819055508273ffffffffffffffffffffffffffffffffffffffff163373ffffffffffffffffffffffffffffffffffffffff167fddf252ad1be2c89b69c2b068fc378daa952ba7f163c4a11628f55a4df523b3ef8460405161081791906109fd565b60405180910390a3600190505b92915050565b6005602052816000526040600020602052806000526040600020600091509150505481565b60008135905061085e81610bda565b92915050565b60008135905061087381610bf1565b92915050565b60006020828403121561088b57600080fd5b60006108998482850161084f565b91505092915050565b600080604083850312156108b557600080fd5b60006108c38582860161084f565b92505060206108d48582860161084f565b9150509250929050565b6000806000606084860312156108f357600080fd5b60006109018682870161084f565b93505060206109128682870161084f565b925050604061092386828701610864565b9150509250925092565b6000806040838503121561094057600080fd5b600061094e8582860161084f565b925050602061095f85828601610864565b9150509250929050565b61097281610ad0565b82525050565b600061098382610a18565b61098d8185610a23565b935061099d818560208601610b06565b6109a681610bc9565b840191505092915050565b6109ba81610afc565b82525050565b60006020820190506109d56000830184610969565b92915050565b600060208201905081810360008301526109f58184610978565b905092915050565b6000602082019050610a1260008301846109b1565b92915050565b600081519050919050565b600082825260208201905092915050565b6000610a3f82610afc565b9150610a4a83610afc565b9250827fffffffffffffffffffffffffffffffffffffffffffffffffffffffffffffffff03821115610a7f57610a7e610b6b565b5b828201905092915050565b6000610a9582610afc565b9150610aa083610afc565b925082821015610ab357610ab2610b6b565b5b828203905092915050565b6000610ac982610adc565b9050919050565b60008115159050919050565b600073ffffffffffffffffffffffffffffffffffffffff82169050919050565b6000819050919050565b60005b83811015610b24578082015181840152602081019050610b09565b83811115610b33576000848401525b50505050565b60006002820490506001821680610b5157607f821691505b60208210811415610b6557610b64610b9a565b5b50919050565b7f4e487b7100000000000000000000000000000000000000000000000000000000600052601160045260246000fd5b7f4e487b7100000000000000000000000000000000000000000000000000000000600052602260045260246000fd5b6000601f19601f8301169050919050565b610be381610abe565b8114610bee57600080fd5b50565b610bfa81610afc565b8114610c0557600080fd5b5056fea2646970667358221220b14c4aaa41648511228758e20429072865febfebda5f599594044445d19619df64736f6c63430008000033",
  "immutableReferences": {},
  "source": "pragma solidity >=0.7.0 <0.9.0;\n\ncontract DappToken {\n\t//Constructor\n\t//Set the total number of tokens \n\t//Read the total number of tokens\n\t//Name\n\tstring public name = \"Dapp Token\";\n\tstring public ticker = \"DAPP\";\n\tstring public standard = \"Dapp Token v1.0\"; \n\tuint256 public totalSupply = 10000;\n\n\n\tevent Transfer(\n\t\taddress indexed _from,\n\t\taddress indexed _to,\n\t\tuint256 _value\n\t);\n\n\tevent Approval (\n\t\t\n\t\taddress indexed\t_ownner,\n\t\taddress indexed _spender,\n\t\tuint256 _value\n\t\t);\n\n\tmapping (address => uint256) public balanceOf;\n\tmapping (address => mapping(address => uint256)) public allowance;\n\n\tconstructor(uint256 _initialSupply) {\n\t\tbalanceOf[msg.sender] = _initialSupply;\n\t\t //state variable writes to the blockchain\n\t\t// allocate the initial supply\t\n\t}\n\n\t//Transfer \n\tfunction transfer(address _to, uint256 _value) public returns (bool success) {\n\t\tif (balanceOf[msg.sender] < _value) return false;\n\t\tbalanceOf[msg.sender] -= _value;\n\t\tbalanceOf[_to] += _value;\n\t\temit Transfer(msg.sender, _to,_value);\n\t\treturn\ttrue;\n\t}\n\n\tfunction transferFrom(address _from, address _to, uint256 _value) public returns (bool success) {\n\t\t// Rquire _from has enough tokens\n\t\tif (_value > balanceOf[_from]) return false;\n\t\t//Require alowance is big enough\n\t\tif (_value > allowance[msg.sender][_from]) return false;\n\t\t//Change the balance \n\t\tbalanceOf[_from] -= _value;\n\t\tbalanceOf[_to] += _value;\n\t\t//Transfer event\n\t\temit Transfer(_from, _to, _value);\n\t\t//return a boolean\n\t\t return true;\n\t}\n\n\tfunction approve(address _spender, uint256 _value) public returns (bool success) {\n\t\tallowance[msg.sender][_spender] = _value;\n\t\taddress _owner = msg.sender;\n\t\temit Approval(_owner, _spender, _value);\n\t\treturn true;\n\t} \n\t\n}",
  "sourcePath": "/home/andrew/new_project/SmartContract/contracts/DappToken.sol",
  "compiler": {
    "name": "solc",
    "version": "0.8.0+commit.c7dfd78e.Emscripten.clang"
  },
  "schemaVersion": "3.4.3",
  "updatedAt": "2021-10-06T12:39:47.584Z",
  "networkType": "ethereum",
  "devdoc": {
    "kind": "dev",
    "methods": {},
    "version": 1
  },
  "userdoc": {
    "kind": "user",
    "methods": {},
    "version": 1
  }
}